:200000000C9465000C948D000C948D000C948D000C948D000C948D000C948D000C942624E3
:200020000C948D000C948D000C948D000C9459040C948D000C948D000C948D000C948D0088
:200040000C94151D0C948D000C94C4200C94F6200C948D000C948D000C948D000C948D00B3
:200060000C942C030C948D000000000800020100000304070000000000000000010204085C
:200080001020408001020408102001020408102004040404040404040202020202020303C0
:2000A000030303030000000023002600290000000000250028002B000000000024002700FF
:2000C0002A00020042026212262111241FBECFEFD8E0DEBFCDBF14E0A0E0B1E0E4EEFCE48D
:2000E00002C005900D92AA3DB107D9F726E0AAEDB4E001C01D92AE3DB207E1F710E0CAECD8
:20010000D0E004C02297FE010E941B25C43CD107C9F70E9485240C9470260C940000CF92B7
:20012000DF92EF92FF920F931F93E82FF92F05C0015011092109310961F19081962394174E
:20014000B9F305C0015011092109310911F1908196239413F7CFC12CD12CE12CF12C0AC048
:200160008FEFC81AD80AE80AF80A0C151D052E053F0579F080818623841791F36C2D7D2D1A
:200180008E2D9F2D1F910F91FF90EF90DF90CF90089560E070E080E090E01F910F91FF90D0
:2001A000EF90DF90CF900895CF93DF938DEC90E00E949424EC010E942906D093DB04C093EB
:2001C000DA0440E0BE018EEE95E0DF91CF910C948E108EEE95E00C943F10CF93CFB7F8940F
:2001E0008091DC04811127C0EAE9F0E08491E6E8F0E09491E82FF0E0EE0FFF1FE854FF4F8E
:20020000A591B4918C91892321F461E08AE00E94D21E61E08AE00E94991E8CB580618CBDD9
:200220008CB580648CBD61E08DE00E94991E61E08BE00E94991E8091DC048F5F8093DC0472
:20024000CFBFCF91089580910D0590E020910E05821B9109089520910E0580910D052817C2
:2002600050F4E22FF0E0E15FFA4F808190E02F5F20930E0508958FEF9FEF0895E0910E0541
:2002800080910D05E81730F4F0E0E15FFA4F808190E008958FEF9FEF08950895CF92DF9299
:2002A000EF92FF920F931F93CF93DF937C01CB018A012091E904222389F0EB016B01C40EAA
:2002C000D51ECC15DD0569F06991D701ED91FC910190F081E02DC7010995F3CF642F0E94C6
:2002E0000303C801DF91CF911F910F91FF90EF90DF90CF900895CF93DF931F92CDB7DEB7F8
:2003000069832091E9042223D1F02091EA04203240F021E030E0FC013383228380E090E0F3
:2003200015C08091EB04E82FF0E0E451FB4F998190838F5F8093EB048093EA0405C061E05E
:20034000CE0101960E94030381E090E00F90DF91CF910895FC011382128248EE53E060E0E3
:2003600070E044835583668377838EE691E091838083089510920E0510920D051092EB0418
:200380001092EA040C94460281E08093E90460930C051092EB041092EA0408950F93062FEB
:2003A00021E04091EA046CEE74E080910C050E94AC021092EB041092EA041092E9040F910D
:2003C00008958F929F92AF92BF92CF92DF92EF92FF920F931F93CF93DF93EC01F62ED42E7D
:2003E00048015901EE2019F10E94C4011E2D143008F013E01150B8F0E881F98128E0129FBC
:20040000B0011124A501940104C056954795379527956A95D2F7CA01B9010190F081E02D4C
:20042000CE010995E7CF60E0CE010E94CE014D2D413208F040E22C2D6FE075E08F2D0E94B7
:20044000640210920E0580930D05DF91CF911F910F91FF90EF90DF90CF90BF90AF909F90A3
:200460008F900895CF92EF920F931F93C22EE12C00E010E098010E94E1011F910F91EF90D1
:20048000CF9008958DED94E00C94AA0110929C0581E080939A051092990561E082E10E944B
:2004A000D21E61E083E10E94D21EE9EBF0E080818E7F808380818D7F808388E48093B80019
:2004C00085E48093BC000895413208F043C090919C059111FCCF91E090939C0520939A0523
:2004E0002FEF20932F0510927405240F2093730590939B0590919B05880F892B80939B05FC
:2005000080919905813061F41092990580919B058093BB008091BC0083FDF8CF85EC01C021
:2005200085EE8093BC0080919C058130E1F380917405841710F44091740525E735E0FB01B2
:20054000D9018A2F821B841718F48D918193F9CF842F089580E008950F93413208F04AC066
:2005600090919C059111FCCF92E090939C0500939A059FEF90932F05109274054093730599
:20058000FB0165E775E0DB019A2F961B941718F491919D93F9CF10929B0590919B05880FFD
:2005A000892B80939B0580919905813061F41092990580919B058093BB008091BC0083FD13
:2005C000F8CF85EC01C085EE8093BC00222321F080919C058230E1F380912F058F3F61F0EE
:2005E00080912F05803251F080912F05803341F483E007C081E005C080E003C082E001C000
:2006000084E00F910895613298F420919C05243089F460935105FC0183E595E0DC012A2F9E
:20062000281B261718F421912D93F9CF80E0089581E0089582E0089585ED8093BC008091A8
:20064000BC0084FDFCCF10929C05089585EC8093BC0010929C0508951F920F920FB60F92DA
:2006600011242F933F934F935F936F937F938F939F93AF93BF93EF93FF938091B900887FFC
:20068000803609F49EC078F5883209F45DC090F4803109F456C038F4882309F4F5C088307F
:2006A00009F44FC0F5C0883109F44EC0803209F45FC0EEC0803409F46AC058F4803309F462
:2006C00057C0883309F0E4C080932F050E942603DFC0803509F44FC0883509F45DC08834A6
:2006E00009F0D6C0D3C0883909F4C4C0A8F4883709F467C038F4883609F463C0803709F459
:2007000060C0C6C0883809F4B5C0803909F45FC0803809F0BDC05BC0803B09F483C038F4BC
:20072000803A09F466C0883A09F47CC0B1C0803C09F4A4C0883C09F4A1C0883B09F487C02A
:20074000A7C080919B0510C09091740580917305981770F5E091740581E08E0F8093740506
:20076000F0E0EB58FA4F80818093BB0085EC83C080932F058BC0E091740581E08E0F80930D
:2007800074058091BB00F0E0EB58FA4F808390917405809173056BC0E091740581E08E0F7F
:2007A000809374058091BB00F0E0EB58FA4F808380919A0581116AC081E08093990584EA96
:2007C0005EC083E080939C0510923005CFCF80913005803208F04EC0E091300581E08E0FCD
:2007E000809330058091BB00F0E0EF5CFA4F8083BDCF0E94260380913005803230F4E0919A
:200800003005F0E0EF5CFA4F10826091300570E0E0919505F091960581E395E009951092F7
:20082000300536C084E080939C051092520510925105E0919705F091980509958091510554
:20084000811105C081E08093510510925305E091520581E08E0F80935205F0E0ED5AFA4FED
:2008600080818093BB009091520580915105981708F47CCF85E88093BC000AC085EC80934A
:20088000BC0010929C0504C010922F050E941C03FF91EF91BF91AF919F918F917F916F91FE
:2008A0005F914F913F912F910F900FBE0F901F9018951F920F920FB60F9211242F933F93F0
:2008C0004F935F936F937F938F939F93AF93BF93EF93FF9380919E0587FF05C0109285000E
:2008E000109284001AC020919E05332727FD309580919D0590E0281739077CF480919E059B
:20090000992787FD9095FC01EE0FFF1FE80FF91FE156FA4F808186FD15C080919E058F5FCC
:2009200080939E0520919E05332727FD309580919D0590E028173907BCF480919E058C30A8
:200940005CF112C080919E05992787FD9095FC01EE0FFF1FE80FF91FE156FA4F808160E073
:200960008F730E94D21ED9CF8091840090918500049680349C4918F480E49CE905C0809102
:20098000840090918500049690938900809388008FEF80939E0538C02091840030918500A5
:2009A00080919E05992787FD9095FC01EE0FFF1FE80FF91FE156FA4F81819281820F931F1B
:2009C000909389008093880080919E05992787FD9095FC01EE0FFF1FE80FF91FE156FA4F0C
:2009E000808186FF11C080919E05992787FD9095FC01EE0FFF1FE80FF91FE156FA4F8081DB
:200A000061E08F730E94D21EFF91EF91BF91AF919F918F917F916F915F914F913F912F91A1
:200A20000F900FBE0F901F90189520919D052C30A0F431E0320F30939D05FC012083822F04
:200A400090E0FC01EE0FFF1FE80FF91FE156FA4F88EB9BE09283818308952FEFFC0120831D
:200A60000895DF92EF92FF920F931F93CF93DF93EC01D62E7A01890188818C3008F066C055
:200A800061E08D2D0E94991E8881A82FB0E0FD01EE0FFF1FEA0FFB1FE156FA4F2D2D2F73EA
:200AA0009081907C922B908360E272E06E197F0977FF02C06D5F7F4F7595679575956795C8
:200AC000698340E659E0401B510B57FF02C04D5F5F4F55954795559547954A836CE00E945B
:200AE00099249CE0899FB001112420E030E0A901460F571FFA01EE0FFF1FE40FF51FE156D6
:200B0000FA4F908196FD16C02F5F3F4F2C30310571F781110FC01092800082E08093810083
:200B20001092850010928400B19A80916F00826080936F00888190E0FC01EE0FFF1FE80FB1
:200B4000F91FE156FA4F8081806480838881DF91CF911F910F91FF90EF90DF90089520E6CC
:200B600039E040E252E00C943105FC01808190E0FC01EE0FFF1FE80FF91FE156FA4F80811C
:200B80008F7B80830895FC0180818C3070F5918128E830E0291B310997FD3395220F331FFD
:200BA000220F331F621773077CF0928128E532E0291B310997FD3395220F331F220F331F41
:200BC000621773070CF49B0122503109220F331F4FB7F89490E0FC01EE0FFF1FE80FF91F2E
:200BE000E156FA4F328321834FBF089526EC33E0FC01318320830C94D1062EE731E0FC015E
:200C0000318320830C94F6052CE132E0FC01318320830C94FD05CF93DF93EC010E94F6056F
:200C2000CE01DF91CF910C949624CF93DF93EC010E94FD05CE01DF91CF910C949624CF93FB
:200C4000DF93EC010E940406CE01DF91CF910C9496241F93CF93DF93EC010E94C3068CE145
:200C600092E0998388831B828CE08C838DED92E09E838D8380E48F8383E0888719861A867F
:200C8000A4E1AB878DEB92E09D878C8716E01E8727ED32E0388B2F872AE0298B40E45BE421
:200CA0006CE470E04E8B5F8B688F798F4A8B5B8B6C8B7D8BFE01E954FF4F21ED32E03183BA
:200CC00020833397B1E0B083319623ED32E0318320833496108211821282138234964083FE
:200CE0005183628373831A8E1C8E1B8E1EA327EB32E038A72FA319A61BA61AA6BCA72BEEF8
:200D000035E03EA72DA740913A0150913B0160913C0170913D014FA758AB69AB7AAB349673
:200D20002DE0208331962AE031E031832083BBAB2DEE35E03DAB2CAB37962CEE35E03183C5
:200D40002083BEAB26EB32E038AF2FAB359727E0208331962CE431E03183208332962EE315
:200D600031E03183208319AE1BAE1AAEACAF9EAF8DAFC553DF4F83EC95E099838883DF910E
:200D8000CF911F910895CF93DF93EC010E94650F8EE791E09983888382E08A83DF91CF9183
:200DA00008952FEF32E0FC01318320830895EF92FF920F931F93CF93DF9300D000D0CDB717
:200DC000DEB77C0119821A821B821C82DC01ED91FC9106A4F7A5E02D8E010F5F1F4F20E0E9
:200DE00032EC41E050E00995D701ED91FC91E657FF4F0190F081E02D69EE72E0C70109955A
:200E00000F900F900F900F90DF91CF911F910F91FF90EF9008950895089581E090E00895E3
:200E200081E090E0089581E090E0089581E090E00895CF93DF931F92CDB7DEB74983DC0121
:200E4000ED91FC9106A8F7A9E02D9E012F5F3F4F41E009950F90DF91CF910895FF920F9373
:200E60001F93CF93DF93EC01F62E8A01F80141918F01442349F0E881F98100ACF1ADE02D1B
:200E80006F2DCE010995F2CFDF91CF911F910F91FF900895DC01ED91FC9104ACF5ADE02DF5
:200EA0000994DC01ED91FC91EE5BFF4F9A01442737FD4095542F0190F081E02D0994DC01FB
:200EC000ED91FC91EC5BFF4F9A0140E050E00190F081E02D0994CF92DF92EF92FF920F9355
:200EE0001F93CF93DF93EC01162F69017A0157FF0FC0E881F98100ACF1ADE02D4DE2099529
:200F0000F094E094D094C094C11CD11CE11CF11CE881F981E856FF4F0190F081E02D0AE0E5
:200F2000A7019601612FCE010995DF91CF911F910F91FF90EF90DF90CF9008950F93DC015D
:200F4000ED91FC91E856FF4F0190F081E02D0AE009950F9108951F93CF93DF93EC01162F6E
:200F6000E881F98100ACF1ADE02D4DE00995E881F98100ACF1ADE02D4AE0612FCE01DF9139
:200F8000CF911F9109941F93CF93DF93EC01162FE881F98100ACF1ADE02D0995E881F98131
:200FA000E85BFF4F0190F081E02D612FCE01DF91CF911F9109941F93CF93DF93EC01162F5D
:200FC000E881F98102ACF3ADE02D0995E881F981E85BFF4F0190F081E02D612FCE01DF91E3
:200FE000CF911F9109941F93CF93DF93EC01162FE881F98104ACF5ADE02D0995E881F981C9
:20100000E85BFF4F0190F081E02D612FCE01DF91CF911F9109941F93CF93DF93EC01162FFC
:20102000E881F98106ACF7ADE02D0995E881F981E85BFF4F0190F081E02D612FCE01DF917A
:20104000CF911F9109941F93CF93DF93EC01162FE881F981EE5BFF4F0190F081E02D099504
:20106000E881F981E85BFF4F0190F081E02D612FCE01DF91CF911F9109941F93CF93DF93EB
:20108000EC01162FE881F981EC5BFF4F0190F081E02D0995E881F981E85BFF4F0190F08183
:2010A000E02D612FCE01DF91CF911F910994FF920F931F93CF93DF93EC01F62EE881F981FA
:2010C000EA5BFF4F0190F081E02D0995E881F981E85BFF4F0190F081E02D6F2DCE01DF9172
:2010E000CF911F910F91FF90099481E090E0089581E090E0089581E090E0089581E090E0F9
:20110000089581E090E0089508950895089508950895089508950895089508950895089568
:2011200008950895089508952FEF32E0FC01318320830C9496240F931F93DC01ED91FC9121
:201140000115110539F400ACF1ADE02D422F1F910F9109940A30110541F4EE5BFF4F0190D4
:20116000F081E02D1F910F910994E856FF4F0190F081E02D09951F910F9108952F923F924C
:201180004F925F926F927F928F929F92AF92BF92CF92DF92EF92FF920F931F93CF93DF937B
:2011A000CDB7DEB7A0970FB6F894DEBF0FBECDBF5C01162FCA01B901211531054105510569
:2011C00011F5D501ED91FC9100ACF1ADE02D40E3612FC501A0960FB6F894DEBF0FBECDBFDB
:2011E000DF91CF911F910F91FF90EF90DF90CF90BF90AF909F908F907F906F905F904F903B
:201200003F902F900994FE0131964F01C12CD12C76013F01202E312C412C512CFFEFCF1A80
:20122000DF0AEF0AFF0AA20191010E94B924D4016D934D01B901CA0161157105810591055F
:2012400069F7B1E0CB1AD108E108F108D501ED91FC9100ACF1ADE02DD301AC0DBD1D4C9181
:201260004A3010F4405D01C0495C612FC5010995B1E0CB1AD108E108F108EFEFCE16DE0622
:20128000EE06FE0619F7A0960FB6F894DEBF0FBECDBFDF91CF911F910F91FF90EF90DF902C
:2012A000CF90BF90AF909F908F907F906F905F904F903F902F900895FC018FEF92E09183EB
:2012C00080838EEF8283138280E8878308958CB5411102C0806201C08F7D8CBD80E090E0C8
:2012E000089580E090E0089581E090E00895CF92DF92FF920F931F93CF93DF9300D000D04B
:20130000CDB7DEB76C01F62EDC01ED91FC91E85AFF4F0190F081E02D29833A834B835C8386
:201320000995D601ED91FC9106A4F7A5E02D29813A814B815C816F2DC60109950F900F908D
:201340000F900F90DF91CF911F910F91FF90DF90CF900895CB01BA010C948E1D0C945F1D47
:201360000E945F1D28EE33E040E050E00E94B924CA01B90108954F925F927F928F929F9200
:20138000AF92BF92CF92DF92EF92FF920F931F93CF93DF931F92CDB7DEB77C016A01890173
:2013A000F90110822A0178E0712CA62EB12C88E0882E912CC2018C199D098A159B057CF537
:2013C000F20181912F0179830E94F41DF70161897981662379F3F7012189261BAC0102C006
:2013E000569547952A95E2F79A01A401471B5109042E01C0220F0A94EAF7F801E70DF11DF4
:201400003081322B3083671710F4761BD3CF671B7394F801E70DF11D108278E0DACF80E0DF
:2014200090E00F90DF91CF911F910F91FF90EF90DF90CF90BF90AF909F908F907F905F90C7
:201440004F900895AF92BF92CF92DF92EF92FF920F931F93CF93DF937901EA0100E010E03D
:20146000A62EB12C0A151B05FCF46E0161E089910E94991EF80193E0F595E7959A95E1F7F0
:20148000EE0DFF1D608170E0C8018770992702C0759567958A95E2F76170F60180810E9459
:2014A000D21E0F5F1F4FDECF80E090E0DF91CF911F910F91FF90EF90DF90CF90BF90AF9059
:2014C00008955F926F927F928F929F92AF92BF92CF92DF92EF92FF920F931F93CF93DF937C
:2014E000542E822E1E2D61E0802F0E94991E1170FF24F394F1266F2D802F0E94D21EE12CFA
:20150000C0E0D0E0912C652C712CC815D90524F5612F802F0E94D21E40E050E046155705E4
:20152000A4F48E2D840F90E0F501E80FF91FD601A80FB91F8C918EBD00000DB407FEFDCFF0
:201540008EB580834F5F5F4FE9CF6F2D802F0E94D21E2196E50CD9CF80E090E0DF91CF9164
:201560001F910F91FF90EF90DF90CF90BF90AF909F908F907F906F905F9008956F927F92B7
:201580009F92AF92BF92CF92DF92EF92FF920F931F93CF93DF931F92CDB7DEB78A017901AD
:2015A0003A01B12CA12C28E0C62ED12CC301801B910B8C159D05F4F4211108C0F701EA0D3E
:2015C000F11DB082A394B12C27E001C02150F30191903F0160E0892D29830E94991E892D78
:2015E0000E94081F2981022E01C0880F0A94EAF7B82ADCCFF701EA0DF11DB08280E090E0E5
:201600000F90DF91CF911F910F91FF90EF90DF90CF90BF90AF909F907F906F9008959F9296
:20162000AF92BF92CF92DF92EF92FF920F931F93CF93DF9300D000D0CDB7DEB7162F842F5B
:20164000922EA7019601813029F561E0812FC9823A834B835C830E94991E61E0812F0E942A
:20166000D21E61E070E080E090E00E948E1D60E0812F0E94D21E61E070E080E090E00E9447
:201680008E1D61E0812F0E94D21E29813A814B815C8126C0823021F561E0812FC9823A8367
:2016A0004B835C830E94991E60E0812F0E94D21E61E070E080E090E00E948E1D61E0812F03
:2016C0000E94D21E61E070E080E090E00E948E1D60E0812F0E94D21E5C814B813A8129813A
:2016E00060E0892D29833A834B835C830E94991E29813A814B815C81011102C060E003C0A0
:20170000013049F461E0892D0E94311FF501608371838283938380E090E00F900F900F90DD
:201720000F90DF91CF911F910F91FF90EF90DF90CF90BF90AF909F900895AF92BF92CF92C1
:20174000DF92EF92FF920F931F93CF93DF937901EA018901A62EB12CC8018E199F098A1587
:201760009B0574F46E0161E089910E94991EF80161918F0170E0F60180810E94111EECCFEF
:2017800080E090E0DF91CF911F910F91FF90EF90DF90CF90BF90AF9008950E94ED0080E063
:2017A00090E0089587539F4FDC01ED91FC91E60FF11D8081882319F08F5F808304C08DED85
:2017C00094E00E94BA0180E090E008958F929F92AF92BF92CF92DF92EF92FF920F931F93AF
:2017E000CF93DF93FC01EF53FF4FC081CC2ED12CA0E0B0E0E0E0F0E07C0172ECE70EF11CD3
:20180000EC15FD0584F4E701A880B980AA0EBB1EE50188809980AA80BB80149628153905E2
:201820004A055B0520F4309721F0319702C03196E7CF611126C0EF01CC0FDD1FCC0FDD1F10
:201840007C01E2ECEE0EF11CD701ED91FC91EC0FFD1F408151816281738126E088E296E0EA
:201860000E944020F701A081B181AC0FBD1F8D919D910D90BC91A02DE80188839983AA8344
:20188000BB8380E090E0DF91CF911F910F91FF90EF90DF90CF90BF90AF909F908F900895C5
:2018A000FF920F931F93CF93DF93F42EE801611107C050E0B90188E296E00E94BF218883D4
:2018C00088818F1519F083E890E002C080E090E0DF91CF911F910F91FF900895611104C063
:2018E00088E296E00E94A22080E090E008953F924F925F926F927F928F929F92AF92BF929E
:20190000CF92DF92EF92FF920F931F93CF93DF93EC016A018A01A62EB12C7C018BECE80E3D
:20192000F11CC8018C199D098A159B050CF044C0D8013D908D01632C712C4301880C991C5A
:20194000D701ED91FC91E80DF91D80819181892B41F783E090E00E9494242C010E94150584
:20196000D701ED91FC911197E80DF91D51824082ED91FC91E80DF91DB301808191810E94BD
:20198000AF05E881F981E858FF4F0190F081E02D69E973E0CE010995E881F981EC56FF4F8E
:2019A000432D50E060E070E00190F081E02D2AE030E0CE010995B5CF80E090E0DF91CF913D
:2019C0001F910F91FF90EF90DF90CF90BF90AF909F908F907F906F905F904F903F900895B7
:2019E0006F927F928F929F92AF92BF92CF92DF92EF92FF920F931F93CF93DF93EC015A019D
:201A000069018A01662E712C7C018BECE80EF11CC8018A199B09861597050CF059C0E881E4
:201A2000F981E858FF4F0190F081E02D67EB73E0CE010995D8018C91E881F981EC57FF4F13
:201A4000D7012C9111969C91A22FB92FA80FB11DA80FB11D4D915C91662757FD6095762F14
:201A60000190F081E02D2AE030E0CE010995E881F981E858FF4F0190F081E02D6EEB73E0A4
:201A8000CE0109954601E881F981EC56FF4FD6014D915D916D0160E070E00190F081E02D6F
:201AA0002AE030E0CE010995F80181918F01D4016D917C91F70120819181E22FF92FE80F49
:201AC000F11DE80FF11D808191810E94C305A0CF80E090E0DF91CF911F910F91FF90EF9009
:201AE000DF90CF90BF90AF909F908F907F906F900895CF92DF92EF92FF920F931F93CF93F7
:201B0000DF937A018A01C62ED12CEC01C553DF4FC8018E199F098C159D05E4F4F8018081FC
:201B200028819981E22FF92FE80FF11DE80FF11D808191810E94B505F80181918F012881EC
:201B40009981E22FF92FE80FF11DE80FF11D11821082DECF80E090E0DF91CF911F910F9166
:201B6000FF90EF90DF90CF90089561110CC0E0912806F091290650E00280F381E02DB90172
:201B800088E296E0099580E090E00895AF92BF92CF92DF92EF92FF920F931F93CF93DF93BC
:201BA00000D000D0CDB7DEB78C01613091F020F0623009F452C069C081E00E94F11DF801E9
:201BC0004289538964897589468B578B608F718F41C0FC01EC54FF4FE081EE2309F455C0C1
:201BE00060E070E080E090E0AE2EB12CD801AB54BF4F01C001968A159B050CF049C0ED90CD
:201C0000FC901197E60EF71EF701C080D180E280F3806C5F7F4FC216D306E406F50651F7B2
:201C2000880F991FF801E954FF4F0190F081E02DE80FF91F808129833A834B835C830E94FA
:201C4000F11D29813A814B815C81F801268B378B408F518F80E090E01DC0FC01E754FF4F1A
:201C6000C080D180E280F3802C153D054E055F0578F03496C080D180E280F380C216D3067B
:201C8000E406F50628F080E0D6CF81E890E002C082E890E00F900F900F900F90DF91CF9181
:201CA0001F910F91FF90EF90DF90CF90BF90AF9008958F929F92AF92BF92DF92EF92FF9266
:201CC0000F931F93CF93DF9300D000D0CDB7DEB7D62E49015A01A801970181149104A1046A
:201CE000B104C9F061E08D2DE9823A834B835C830E94991E29813A814B815C8121153105D3
:201D00004105510519F420E030E0A901B4018D2D0E94E22103C0862F0E94112480E090E02D
:201D20000F900F900F900F90DF91CF911F910F91FF90EF90DF90BF90AF909F908F90089511
:201D4000CB01642F0C946226CB010C945A269CB5937F982B9CBD0895413049F030F04230B8
:201D600041F0433049F48CE005C080E003C084E001C088E00E94A70E80E090E008952CB5FC
:201D8000982F93702C7F922B9CBD9DB582FB882780F99E7F982B9DBD08952F923F924F9277
:201DA0005F926F927F928F929F92AF92BF92CF92DF92EF92FF920F931F93CF93DF9300D060
:201DC00000D000D0CDB7DEB77C01C12CD12C1E821D823C0164EC660E711C4C0175EC870ED3
:201DE000911C5C0187ECA80EB11CD3018C9190E06D817E81681779070CF04CC0D401ED913B
:201E0000FC91B601660F771FE60FF71F20803180428053802215330544055505A8F0F801DF
:201E200020823182428253828D819E81880F991FF701E953FF4F0190F081E02DE80FF91F98
:201E400080810E94BF0E26C001976D817E8168177907B1F4D8012D923D924D925C92139725
:201E6000D501ED91FC91EC0DFD1D808129833A834B835C830E94BF0E5C814B813A812981DA
:201E80006D817E816F5F7F4F7E836D8372E0C70ED11CABCF80E090E026960FB6F894DEBFC0
:201EA0000FBECDBFDF91CF911F910F91FF90EF90DF90CF90BF90AF909F908F907F906F90E3
:201EC0005F904F903F902F9008951F93CF93DF93EC010E945C0986EC93E09983888383E020
:201EE000888719861A8680E090E00E945A26182F81E090E00E945A26EF96212F30E0322F22
:201F00002227282B39832883DF91CF911F910895EF92FF920F93CF93DF931F92CDB7DEB74F
:201F2000642F8DED94E029830E94C401402F50E0B7018DED94E00E944E012981211102C039
:201F400061E003C0213041F460E08DED94E00E94CE0180E090E007C061E08DED94E00E94F0
:201F6000CE0181E890E00F90DF91CF910F91FF90EF9008954F925F926F927F928F929F92C9
:201F8000AF92BF92CF92DF92EF92FF920F931F93CF93DF93642F211102C021E003C0213007
:201FA00099F520E0402F8DED94E00E9432020E945F1D4B015C0110E02701612C712C8DEDDD
:201FC00094E00E9423018017910774F40E945F1D681979098A099B09461657066806790632
:201FE00070F783E890E012C0E601CE018C199D098017910734F48DED94E00E942B0189939D
:20200000F4CF80E090E002C081E890E0DF91CF911F910F91FF90EF90DF90CF90BF90AF9008
:202020009F908F907F906F905F904F900895CF93DF93EA01611105C088E296E00E945D1FE5
:20204000888380E090E0DF91CF910895CF93DF93EC018A819B81DC01ED91FC91E85AFF4FD8
:202060000190F081E02D6885099518AA1FA680E090E0DF91CF9108958FEF9FEF0895CF93F7
:20208000DF93EC018FA598A98430910541F17CF4892B09F040C0E881F9816A817B81008881
:2020A000F189E02D4885CE01DF91CF91099485309105D9F0069779F58A819B81DC01ED91EF
:2020C000FC91E657FF4F0190F081E02D6EE674E00995E881F9810484F585E02D18C0E88160
:2020E000F9810084F185E02D12C08A819B81DC01ED91FC91E657FF4F0190F081E02D60E69E
:2021000074E00995E881F9810284F385E02DCE01DF91CF910994DF91CF910895DF92EF9244
:20212000FF920F931F93CF93DF9300D000D0CDB7DEB77C018B01D42EDC0113967C936E938C
:202140001297FB01878190E00E942E25D7011A969C938E931997F801878190E00E942E257F
:20216000D7011C969C938E931B97D801ED91FC91E657FF4F0190F081E02D6BE774E0C801E6
:202180000995F701D08619821A821B821C8282819381DC01ED91FC9106A4F7A5E02D8E0100
:2021A0000F5F1F4F20E835E240E050E06D2D099584E090E0F70190AB87A70F900F900F908A
:2021C0000F90DF91CF911F910F91FF90EF90DF900895EF92FF920F931F93CF93DF9300D01C
:2021E000CDB7DEB77C011A82DC0112968D919C911397DC01ED91FC9102A8F3A9E02DAE0149
:202200004E5F5F4FD70118966C9109958A81823008F431C11982F70182819381DC01ED9192
:20222000FC91D70119962D913C911A9704A8F5A9E02D8E010F5F1F4F42E018966C91099521
:20224000D7011996ED91FC911A97208112968D919C911397DC01ED91FC9102A8F3A9E02DC2
:20226000AE014E5F5F4FD70118966C912F3F09F0EBC009952A8130E0D7011996ED91FC91D4
:202280001A97818190E002972817390734F1F701828193810184F285E02DDC016D917C91DE
:2022A0009F012E5F3F4F41814250DB01D496ED91FC91D5978E010F5F1F4FD70118966C9164
:2022C0000995F70161857285C7010E94CB12F701A281B38181115AC0A4C005E610E02A815F
:2022E00030E0D7011996ED91FC911A97818190E00297281739075CF6D70112968D919C91E4
:202300001397DC01ED91FC9102A8F3A9E02DAE014E5F5F4FD70118966C9109950150110942
:20232000F70182819381DC01ED91FC910115110511F502A8F3A9E02DAE014E5F5F4FD7013F
:2023400018966C910995F70182819381DC01ED91FC91D70119962D913C911A9704A8F5A930
:20236000E02D8E010F5F1F4F4A8118966C9109958FEF9FEF8EC0E259FF4F0190F081E02DDF
:2023800041E050E060E070E00995A9CFED91FC911197CF018A569F4FF70141855285FC0163
:2023A0002081318161E0CD01F9010995D7011B964D915C911C9719966D917C911A97C701E9
:2023C0000E942C13049729F485E090E0F70190AB87A7D70112968D919C911397DC01ED915E
:2023E000FC91EA56FF4FD7011B964D915C911C970190F081E02D60E00995F70182819381BF
:20240000A385B485FC0120813181F90106A917A99D0111964C91D70118966C91F801099566
:2024200036C0ED91FC91119722A933A9AE014E5F5F4FF7016085CD01F9010995D70112967F
:202440008D919C91139704C00995F70182819381DC01ED91FC91D70119962D913C911A976B
:2024600004A8F5A9E02D8E010F5F1F4F4A8118966C9109950CC0D7019D96ED91FC919E976F
:20248000309729F060E070E080E090E0099580E090E00F900F90DF91CF911F910F91FF90A1
:2024A000EF900895CF93DF93EC010E94B31285E994E09983888318AA1FA61F821E82DF9197
:2024C000CF9108958EEE95E00C9452128FEF9FEF08958FEF9FEF08958FEF9FEF08958FEF91
:2024E0009FEF08958FEF9FEF08958FEF9FEF08958FEF9FEF0895CF93DF93DC011496CD91FD
:20250000DC911597C430D105B9F054F4209729F5DC01ED91FC910190F081E02D09951FC09E
:20252000C530D10581F02697C1F4DC01ED91FC910484F585E02D0DC0DC01ED91FC910084BD
:20254000F185E02D06C0DC01ED91FC910284F385E02D0995C0E0D0E002C0C0E8D0E0CE0168
:20256000DF91CF91089529EB34E0FC0131832083158214820895FB01218130E0215031094F
:2025800080E0AF01461B570B421753071CF49191890FF7CF0895CF93DF93EB010E94BB1259
:2025A0009981C90FD11D219791E02881821390E0892FDF91CF9108950F931F93CF93DF9317
:2025C000FA014FEF408346E0420F4183DB0112964C911297428313964C9143830F3F110545
:2025E00009F010F4048302C043E04483E9012596CE0FDF1FBF010E94BB128883DF91CF9121
:202600001F910F9108950F931F93890120E030E00E94DC121F910F910895EF92FF920F93AE
:202620001F93CF93DF93D901EA012596F901202F30E08F010A1B1B0B021713071CF411917B
:202640001993F7CF87010E94DC12DF91CF911F910F91FF90EF9008952F923F924F925F92C1
:202660006F927F928F929F92AF92BF92CF92DF92EF92FF920F931F93CF93DF9300D000D0B8
:2026800000D0CDB7DEB73C014B012A012DB63EB6DB0114962C91149730E0322F2227159673
:2026A0008C91282B2115BCEF3B07C0F01982F901FC5FEE0FFF1FE60DF71D9A012B5F3F4F12
:2026C0006A5F7F4FD40111968C910584F685E02DAE014F5F5F4F8750099566C72432310580
:2026E00009F4D1C508F007C12231310509F4D4C208F07BC02A30310509F488C208F04FC05A
:202700002530310509F44EC258F42330310509F41BC208F02AC2232B09F4F1C70C94ED1CE2
:202720002830310509F45CC208F065C22630310511F00C94ED1CFB01208530E0322F222740
:20274000442737FD4095542F8185282B19821A821B821C82D30112968D919C911397DC0169
:20276000ED91FC9100A8F1A9E02D8E010F5F1F4FD30118966C9109957C01F30182819381EF
:20278000DC01ED91FC91E259FF4F0190F081E02D48EE53E060E070E009950C94E61CF3018C
:2027A000A281B3812E30310509F44DC278F42C30310509F436C208F03DC297962D913C9180
:2027C0009897E12CF12C96960C9167C52031310509F442C208F049C2D7962D913C91D897B9
:2027E000E12CF12CD6960C9158C52A31310509F4ADC380F5D30112968D919C91139726314E
:20280000310509F4FAC290F42431310509F47CC208F0D1C2FC01FF968181FA018583D30189
:202820001296ED91FC91139787AD67C22831310509F411C308F065C3FC01EB5BFF4F8181CB
:20284000FA018583D3011296ED91FC911397EB5BFF4F52C22E31310509F429C4B8F4F3017D
:20286000828193812C31310509F4A3C308F0FDC3FC01E55BFF4F8181FA018583D301129687
:20288000ED91FC911397E55BFF4F36C22032310509F438C408F427C42232310509F493C4B7
:2028A0002332310511F00C94ED1CD3011296ED91FC911397E055FF4F8381FA018583129680
:2028C000ED91FC911397E055FF4F8281DA0116968C93D3011296ED91FC911397E055FF4F63
:2028E0008181FA0187831296ED91FC911397E055FF4F808191C5213E310509F479C608F0D1
:20290000ACC02436310509F494C508F069C02334310509F407C5B0F42134310509F4C3C43B
:2029200008F0D7C42532310511F00C94ED1CD3011296ED91FC91139725AD36ADE12CF12CBD
:2029400004ADABC42036310509F425C52136310509F445C52434310511F00C94ED1CF30124
:2029600082819381DC01ED91FC91DB011A962C911A971B96CC901B97D12CE12CF12C760101
:20298000DD24CC24F22A1D962C911D97C22A1C962C911C97D22A0488F589E02D9E012F5FB8
:2029A0003F4F590119960C91199716962C91169718964C91189717966C9109957C01898114
:2029C0009A812B813C81D20115963C93159716962C93169717969C93179718968C93C3C682
:2029E000223C310509F4ADC500F5203C310509F460C508F079C52338310509F0EEC7F301C2
:202A000082819381DB0116966C91DC01ED91FC91262F30E0295F3F4F280D391DA401495FDF
:202A20005F4F0688F789E02D42C5243C310509F4BEC508F4A0C5253C310509F4CDC5203ECB
:202A4000310509F0CAC7F30182819381DC01ED91FC9104A0F5A1E02D2CC62730F1E03F071C
:202A600009F485C6D8F5211591E0390709F426C6B0F4233E310509F4F4C508F4D4C5243E89
:202A8000310509F0AAC7D30112968D919C911397DC01ED91FC9104A4F5A5E02D0AC62230CC
:202AA000B1E03B0709F42EC608F419C62330314009F093C7D30112968D919C911397DC0112
:202AC000ED91FC91068CF78DE02DDB0117964C91179716966C9109957C0145C6203681E02E
:202AE000380709F402C7B8F42134A1E03A0709F476C62234B1E03B0709F4E3C62034314041
:202B000009F06BC7F30182819381DC01ED91FC91E65AFF4FDEC62236F1E03F0709F422C710
:202B200008F4FDC6233691E0390709F442C72436314009F052C7F30182819381DC01ED9183
:202B4000FC91E859FF4F3DC7D3011296ED91FC9113978281FA0185831296ED91FC911397C1
:202B60008381DA0116968C93CAC0D3011296ED91FC9113978085FA0185831296ED91FC9135
:202B800013978185DA0116968C93D3011296ED91FC9113978285FA01878300E010E023E0CF
:202BA00030E041C4D3011296ED91FC91139782A9FA0185831296ED91FC91139781A9DA013F
:202BC00016968C93D3011296ED91FC91139780A9FA0187831296ED91FC91139787A51CC462
:202BE000D3011296ED91FC91139724853585E12CF12C038552C3D3011296ED91FC91139749
:202C000027853089E12CF12C068547C3D3011296ED91FC911397238D348DE12CF12C028D35
:202C20003CC39A962D913C919B97E12CF12C99960C9133C39D962D913C919E97E12CF12C9F
:202C40009C960C912AC3D4962D913C91D597E12CF12CD3960C9121C3DA962D913C91DB97D6
:202C6000E12CF12CD9960C9118C3ED91FC911197E657FF4F0190F081E02D67EA74E0CD0183
:202C8000099520E030E0A201B401C3010E940313E4E0EE2EF12CAAC6F30182819381FC013D
:202CA000FF96DB0116962C91169730E0322F222717964C91242B31832083DC01ED91FC91BB
:202CC000E059FF4F0190F081E02DD40116964C9160E070E00995F30182819381DC01ED916C
:202CE000FC91E059FF4F0190F081E02DD40117964C9161E070E05DC08081F201868300E0C7
:202D000010E022E030E08FC3FC01EF5BFF4FDB0118964C91189750E0542F442719962C912A
:202D2000422B662757FD6095762F4083518362837383DC01ED91FC91E059FF4F0190F081C8
:202D4000E02DD40116964C9162E070E00995F30182819381DC01ED91FC91E059FF4F0190CD
:202D6000F081E02DD40117964C9163E070E00995F30182819381DC01ED91FC91E059FF4FCB
:202D80000190F081E02DD40118964C9164E070E00995F30182819381DC01ED91FC91E05966
:202DA000FF4F0190F081E02DD40119964C9165E070E00995A4C4FC01EF5BFF4F8381FA0126
:202DC0008583D3011296ED91FC911397EF5BFF4F8281FA0186831296ED91FC911397EF5B74
:202DE000FF4F8181DA0117968C93D3011296ED91FC911397EF5BFF4FA5C0FC01EB5BFF4F1D
:202E0000DB0116962C91169730E0322F222717964C91242B31832083DC01ED91FC91E059B5
:202E2000FF4F0190F081E02DDB0116964C9166E070E00995F30182819381DC01ED91FC91A9
:202E4000E059FF4F0190F081E02DD40117964C9167E070E0AECFFC01E95BFF4FDB01189650
:202E60004C91189750E0542F442719962C91422B662757FD6095762F4083518362837383E2
:202E8000DC01ED91FC91E059FF4F0190F081E02DD40116964C9168E070E00995F301828129
:202EA0009381DC01ED91FC91E059FF4F0190F081E02DD40117964C9169E070E00995F301F6
:202EC00082819381DC01ED91FC91E059FF4F0190F081E02DD40118964C916AE070E00995C5
:202EE000F30182819381DC01ED91FC91E059FF4F0190F081E02DD40119964C916BE070E04D
:202F000058CFFC01E95BFF4F8381FA018583D3011296ED91FC911397E95BFF4F8281FA0133
:202F200086831296ED91FC911397E95BFF4F8181DA0117968C93D3011296ED91FC911397BF
:202F4000E95BFF4F8081F201808769C2D30112968D919C911397FC01E55BFF4FDB01169635
:202F60002C91169730E0322F222717964C91242B31832083DC01ED91FC91E059FF4F0190FD
:202F8000F081E02DDB0116964C916CE070E00995F30182819381DC01ED91FC91E059FF4F9A
:202FA0000190F081E02DD40117964C916DE070E000CFDB0116962C91FC01E35BFF4F213216
:202FC00078F020E22083F30182819381DC01ED91FC91E059FF4F0190F081E02D40E20FC06A
:202FE0002083F30182819381DC01ED91FC91E059FF4F0190F081E02DDB0116964C916EE0F2
:2030000070E009957401B7E0EB0EF11C00E010E0D30112968D919C911397FC01E35BFF4FE6
:20302000208130E0021713070CF069C3D701800F911F9C01225B3F4FF70181917F01F90141
:203040008083F30182819381FC0120813181F901E059FF4FB801615F7F4F0190F081E02D3B
:203060004C9109950F5F1F4FD3CFFC01E35BFF4F8081FA018583369680E090E0D3011296B2
:203080004D915C911397DA01A35BBF4F2C9130E0821793074CF4480F591FDA01A25BBF4FDF
:2030A0002C9121930196EACF00E010E0BCC1D3011296ED91FC911397DB0116968C91E259F1
:2030C000FF4F8083F30182819381DC01ED91FC91E059FF4F0190F081E02DDB0116964C91B1
:2030E00060E370E066CED3011296ED91FC911397E259FF4F8081FA01858300E010E021E07A
:2031000030E091C1DB0116962C91F30182819381FC01E159FF4F213488F020E42083D30130
:2031200012968D919C911397DC01ED91FC91E059FF4F0190F081E02D40E40FC02083F301EA
:2031400082819381DC01ED91FC91E059FF4F0190F081E02DDB0116964C9161E370E0099543
:203160007401B7E0EB0EF11C00E010E0D30112968D919C911397FC01E159FF4F208130E0C6
:20318000021713070CF0BBC2D701800F911F9C0120593F4FF70181917F01F9018083F3014D
:2031A00082819381FC0120813181F901E059FF4FB8016E5C7F4F0190F081E02D4C9109954C
:2031C0000F5F1F4FD3CFF30182819381FC01E055FF4FDB0116962C91169717964C911797BC
:2031E00050E060E070E0BA0155274427722B19962C911997422B18962C91522B40835183C8
:2032000062837383DC01ED91FC91E059FF4F0190F081E02DD40116964C9162E770E00995C0
:20322000F30182819381DC01ED91FC91E059FF4F0190F081E02DD40117964C9163E770E00C
:203240000995F30182819381DC01ED91FC91E059FF4F0190F081E02DD40118964C9164E79C
:2032600070E00995F30182819381DC01ED91FC91E059FF4F0190F081E02DD40119964C9176
:2032800065E770E096CDD3011296ED91FC91139725813681E12CF12C0481A201B401C301D6
:2032A0000E940D13A3C3F30182819381DB0116966C91DC01ED91FC91262F30E0295F3F4FF3
:2032C000280D391DA401495F5F4F0284F385E02DEEC0FB011181D30112968D919C911397B0
:2032E000DC01ED91FC919A012B5F3F4FAB014A5F5F4F69EF610F0684F785E02D09957C013A
:20330000212F30E02850310953E0359527955A95E1F72F5F30E08701A201B401C3010E9437
:20332000DC1264C3F30182819381DC01ED91FC91DB011B96EC901B974E2D50E060E070E08F
:20334000142F0027FF24EE241E962C911E97E22A1D964C911D9750E0542F4427662757FD59
:203360006095762FE42AF52A062B172B19962C91199730E0322F2227442737FD4095542F46
:203380001A966C911A97262B0288F389E02D16966C9109951AC3F30182819381DC01ED91E1
:2033A000FC91DB0117966C91179718962C911897022F10E020E030E0A80133272227562B34
:2033C0001A966C911A97262B19966C911997362B0084F185E02D16966C910995F6C2D301A7
:2033E0001296ED91FC911397818DFA0185831296ED91FC911397808DDA0116968C93D3017B
:203400001296ED91FC9113978789FA0187831296ED91FC9113978689D20118968C9300E04E
:2034200010E024E030E0A201B401C3010E94DC12DBC2D3011296ED91FC9113978189FA0109
:20344000858312968D919C911397DC01ED91FC91DB0111966C9167500480F581E02D9A0106
:203460002A5F3F4FA4014A5F5F4F09957C01F401818190E00797D3011296ED91FC911397E8
:203480002189289FA001299F500D1124CA0123E0969587952A95E1F7282F47705527452B1A
:2034A00011F021E0280F30E02F5F3F4F34CF09958CC2FB01218530E0322F2227442737FDBD
:2034C0004095542F8285282B19821A821B821C82D30112968D919C911397DC01ED91FC916F
:2034E00006A4F7A5E02D1BC0DB0119962C91199730E0322F2227442737FD4095542F1A9645
:203500008C91282B19821A821B821C82F30182819381DC01ED91FC9100A8F1A9E02D8E01F8
:203520000F5F1F4FD40116966C9109957C0189819A812B813C81F201358326839783808713
:2035400012C1D30112968D919C911397DC01ED91FC9102A8F3A9E02DAE014F5F5F4FDB0105
:2035600016966C9109957C018981F2018583870121E030E0D1CE1982D30112968D919C91E8
:203580001397DC01ED91FC919A012B5F3F4F04A8F5A9E02D8E010F5F1F4FDB0117964C91BE
:2035A000179716966C9109957C012981B3CEF30182819381DC01ED91FC919B01295F3F4FC9
:2035C000DB0111964C911197485006A8F7A9E02D16966C910995F9C1F30182819381DC0107
:2035E000ED91FC91E85AFF4F0190F081E02D61C0FB01218530E0322F2227442737FD409530
:20360000542F8285282B19821A821B821C82D30112968D919C911397DC01ED91FC9106A05C
:20362000F7A1E02D7CCFD30112968D919C911397DC01ED91FC917B01B9E0EB0EF11CDB014A
:2036400011960C9111970A5000A4F1A5E02D18962C91189717964C91179716966C91099544
:20366000B4C1F30182819381DC01ED91FC916A01B5E0CB0ED11CDB011996EC901997F12C48
:20368000FE2CEE241A962C911A97E22A02A4F3A5E02D18960C9118971B962C911B971796B2
:2036A0004C91179716966C9109957C01F401208531CED40116966C91099587C1F3018281C7
:2036C0009381DC01ED91FC91028CF38DE02DDB0116966C9109957C0120E030E078C1F301F6
:2036E00082819381DC01ED91FC91048CF58DE02DDB0117964C91179716966C91099520E051
:2037000030E06DC1FB0187812085422F50E060E070E033272227582B8285282B8185382BA8
:2037200019821A821B821C82D30112968D919C911397DC01ED91FC9100A0F1A1E02D8E01F0
:203740000F5F1F4FD40116966C9109957C0189819A812B813C81F2013583268397838087F1
:2037600000E010E001C0870124E030E0D5CDD3011296ED91FC911397DB0117964C91008162
:2037800011815201B5E0AB0EB11C6B012AE0C20ED11CDB0111968C9190E00B97642F70E061
:2037A0000E94A524262FD80192960D90BC91A02DBE83AD83D4011996EC90199718960C9125
:2037C000189716966C91CF01ED81FE8109957C01D40111962C9130E02B5031099CCDADB6EF
:2037E000BEB6DB011696EC91F0E0CF01880F991F2DB73EB7281B390B0FB6F8943EBF0FBEE6
:203800002DBF0DB71EB70F5F1F4FE60FF71F3896B80180E090E0D40116962C9130E08217FE
:2038200093078CF49F0121503109D9012C9130E0322F22274081242BDB012D933D93BD0198
:2038400001963296E8CF6801E12CF12CF4016681262F30E0D30112968D919C911397E21615
:20386000F306ACF4F601419151916F01DC01ED91FC91EC56FF4F60E070E00190F081E02D7D
:203880002AE030E00995BFEFEB1AFB0ADFCFDC01ED91FC91E45AFF4FA401495F5F4F01900A
:2038A000F081E02D980109957C019C01A201B401C3010E9403130FB6F894BEBE0FBEADBE60
:2038C00095C0F30182819381DC01ED91FC91E25AFF4FA4014A5F5F4FD40111966C916750EA
:2038E0000190F081E02D099570C0F30182819381DC01ED91FC91E05AFF4FDB0116966C91EB
:20390000169770E0762F662717962C911797622B0190F081E02D18964C91099556C0F30191
:2039200082819381DC01ED91FC91EE59FF4FDB0116966C91169770E0762F662717962C91D5
:203940001797622B0190F081E02D1B96EC901B971A960C911A9719962C91199718964C9199
:20396000099533C0F30182819381DC01ED91FC91EC59FF4F9B01255F3F4FDB0118964C911B
:20398000189750E0542F442719966C911997462B16966C91169770E0762F662717961C915B
:2039A0001797612B0190F081E02D1A960C9109950CC0F30182819381DC01ED91FC91EA59D1
:2039C000FF4F0190F081E02D09957C019701A201B401C3010E94031309C021E030E0A20186
:2039E000B401C3010E940313E12CF12CC7010FB6F8943EBE0FBE2DBE26960FB6F894DEBFF5
:203A00000FBECDBFDF91CF911F910F91FF90EF90DF90CF90BF90AF909F908F907F906F9067
:203A20005F904F903F902F9008951F920F920FB60F9211242F933F938F939F93AF93BF9324
:203A40008091200690912106A0912206B091230630911F0623E0230F2D3720F40196A11D3C
:203A6000B11D05C026E8230F0296A11DB11D20931F068093200690932106A0932206B09356
:203A800023068091240690912506A0912606B09127060196A11DB11D8093240690932506FD
:203AA000A0932606B0932706BF91AF919F918F913F912F910F900FBE0F901F9018952FB77A
:203AC000F894609120067091210680912206909123062FBF08953FB7F8948091240690912F
:203AE0002506A0912606B091270626B5A89B05C02F3F19F00196A11DB11D3FBF6627782F21
:203B0000892F9A2F620F711D811D911D42E0660F771F881F991F4A95D1F70895CF92DF9237
:203B2000EF92FF92CF93DF936B017C010E946B1DEB01C114D104E104F10489F00E94982445
:203B40000E946B1D6C1B7D0B683E734090F381E0C81AD108E108F108C851DC4FEACFDF91E5
:203B6000CF91FF90EF90DF90CF900895789484B5826084BD84B5816084BD85B5826085BD4B
:203B800085B5816085BDEEE6F0E0808181608083E1E8F0E01082808182608083808181604C
:203BA0008083E0E8F0E0808181608083E1EBF0E0808184608083E0EBF0E080818160808381
:203BC000EAE7F0E08081846080838081826080838081816080838081806880831092C10042
:203BE00008958093680108958E3008F08E5087702091680190E4299F90011124822B8093A8
:203C00007C0080917A00806480937A0080917A0086FDFCCF809178002091790090E0922B73
:203C200008951F93CF93DF93182FEB0161E00E94991E209711F460E004C0CF3FD10539F4C3
:203C400061E0812FDF91CF911F910C94D21EE12FF0E0E859FF4FE491E330F9F048F4E13036
:203C6000B9F0E230A1F584B5806284BDC8BD34C0E730E9F0E83019F1E43049F58091800029
:203C8000806280938000D0938B00C0938A0024C084B5806884BDC7BD1FC0809180008068C2
:203CA00080938000D0938900C093880015C08091B00080688093B000C093B3000DC0809185
:203CC000B00080628093B000C093B40005C0C038D1050CF0B5CFAFCFDF91CF911F910895DA
:203CE000833081F028F4813099F08230A1F008958730A9F08830B9F08430D1F480918000AF
:203D00008F7D03C0809180008F7780938000089584B58F7702C084B58F7D84BD08958091D8
:203D2000B0008F7703C08091B0008F7D8093B0000895CF93DF9390E0FC01E458FF4F24915D
:203D4000FC01E057FF4F8491882349F190E0880F991FFC01E854FF4FA591B49182559F4F61
:203D6000FC01C591D4919FB7611108C0F8948C91209582238C93888182230AC0623051F48A
:203D8000F8948C91322F309583238C938881822B888304C0F8948C91822B8C939FBFDF91C7
:203DA000CF9108950F931F93CF93DF931F92CDB7DEB7282F30E0F901E859FF4F8491F90115
:203DC000E458FF4F1491F901E057FF4F04910023C9F0882321F069830E94701E6981E02FF3
:203DE000F0E0EE0FFF1FE255FF4FA591B4919FB7F8948C91611103C01095812301C0812BEE
:203E00008C939FBF0F90DF91CF911F910F910895CF93DF93282F30E0F901E859FF4F8491F0
:203E2000F901E458FF4FD491F901E057FF4FC491CC2391F081110E94701EEC2FF0E0EE0FAB
:203E4000FF1FEC55FF4FA591B4912C912D2381E090E021F480E002C080E090E0DF91CF9185
:203E600008950F931F93762F90E0FC01E458FF4F6491FC01E057FF4FE4917111762FF0E0D2
:203E8000EE0FFF1FEC55FF4F8591949189019A013F70472F0E948F006115710581059105BA
:203EA00031F06F5F7F4F8F4F9F4F9F7003C060E070E0CB011F910F910895FC01818D228DA4
:203EC00090E0805C9F4F821B91098F7399270895FC01918D828D981731F0828DE80FF11D04
:203EE000858D90E008958FEF9FEF0895FC01918D828D981761F0828DDF01A80FB11D5D9669
:203F00008C91928D9F5F9F73928F90E008958FEF9FEF08958CE191E2892B49F080E090E0E1
:203F2000892B29F00E941C2181110C9400000895FC01848DDF01A80FB11DA35ABF4F2C91CB
:203F4000848D90E001968F739927848FA689B7892C93A089B1898C9180648C93938D848D92
:203F6000981306C00288F389E02D80818F7D80830895CF93DF93EC01888D8823C9F0EA8963
:203F8000FB89808185FD05C0A889B9898C9186FD0FC00FB607FCF5CF808185FFF2CFA88970
:203FA000B9898C9185FFEDCFCE010E94981FE7CFDF91CF910895CF92DF92FF920F931F9360
:203FC000CF93DF931F92CDB7DEB76C0181E0D60158968C9358975B969C915B975C968C9183
:203FE0005C97981307C05096ED91FC915197808185FD2EC0F601038D10E00F5F1F4F0F733D
:204000001127F02EF601848DF81211C00FB607FCF9CFD6015096ED91FC915197808185FFA2
:20402000F1CFC60169830E94981F6981EBCF838DE80FF11DE35AFF4F6083D6015B960C9326
:204040005B975296ED91FC915397808180620CC0D6015696ED91FC91579760835096ED91DF
:20406000FC91519780818064808381E090E00F90DF91CF911F910F91FF90DF90CF90089559
:20408000BF92CF92DF92EF92FF92CF93DF93EC016A017B01B22EE889F98982E080834115B5
:2040A00081EE580761057105A1F060E079E08DE390E0A70196010E94B92421503109410999
:2040C00051095695479537952795211580E1380798F0E889F989108260E874E88EE190E0D1
:2040E000A70196010E94B92421503109410951095695479537952795EC85FD853083EE854B
:20410000FF852083188EEC89FD89B082EA89FB89808180618083EA89FB89808188608083E6
:20412000EA89FB89808180688083EA89FB8980818F7D8083DF91CF91FF90EF90DF90CF90E9
:20414000BF900895CF93DF93EC01E881F9810284F385E02D0995EA89FB8980818F7E80831E
:20416000EA89FB898081877F8083EA89FB8980818F778083EA89FB8980818F7D80838A8D1F
:20418000898FDF91CF9108951F920F920FB60F9211242F938F939F93EF93FF93E0913806D4
:2041A000F09139068081E0913E06F0913F0682FD12C09081809141068F5F8F732091420620
:2041C000821751F0E0914106F0E0E85DF94F958F8093410601C08081FF91EF919F918F9150
:2041E0002F910F900FBE0F901F9018951F920F920FB60F9211242F933F934F935F936F9341
:204200007F938F939F93AF93BF93EF93FF9388E296E00E94981FFF91EF91BF91AF919F9187
:204220008F917F916F915F914F913F912F910F900FBE0F901F90189588E296E00E945D1F89
:2042400021E0892B09F420E0822F089510922B0610922A0688EE93E0A0E0B0E080932C067B
:2042600090932D06A0932E06B0932F068DEC94E0909329068093280685EC90E0909335064A
:204280008093340684EC90E0909337068093360680EC90E0909339068093380681EC90E0D6
:2042A00090933B0680933A0682EC90E090933D0680933C0686EC90E090933F0680933E060D
:2042C000109241061092420610924306109244060895CF92DF92EF92FF920F931F93CF93FD
:2042E000DF937C016A01EB0100E010E00C151D0571F06991D701ED91FC910190F081E02D18
:20430000C7010995892B19F00F5F1F4FEFCFC801DF91CF911F910F91FF90EF90DF90CF901B
:2043200008950F931F93CF93DF93EC010E945F1D688779878A879B87E881F9810680F781AA
:20434000E02DCE01099597FF15C00E945F1D088519852A853B85601B710B820B930B0C8111
:204360001D812E813F81601771078207930720F38FEF9FEFDF91CF911F910F910895CF92E1
:20438000DF92EF92FF920F931F93CF93DF937C016A01EB0100E010E00C151D0549F0C7018A
:2043A0000E94912197FD04C089930F5F1F4FF4CFC801DF91CF911F910F91FF90EF90DF9030
:2043C000CF9008953F924F925F926F927F928F929F92AF92BF92CF92DF92EF92FF920F93C2
:2043E0001F93CF93DF9300D000D0CDB7DEB78B0129013A0190916901981721F09F3F09F06B
:20440000DAC104C0E2ECF0E0349081C080936901E2ECF0E0E491EF3F09F4CDC1E13031F11E
:20442000E23009F44BC0E11171C014BC15BC94B5926094BD95B5916095BD282F30E0F90124
:20444000E057FF4FE491F0E0EE0FFF1FE255FF4F459154915093D5064093D406F901E45896
:20446000FF4F24912093D306312C53C0109280001092810090918100986090938100909199
:204480008100916090938100282F30E0F901E057FF4FE491F0E0EE0FFF1FE255FF4F459165
:2044A00054915093CE064093CD06F901E458FF4F24912093CC06332433942BC01092B000A1
:2044C0001092B1009091B00092609093B0009091B10091609093B100282F30E0F901E057C4
:2044E000FF4FE491F0E0EE0FFF1FE255FF4F459154915093C7064093C606F901E458FF4FFB
:2045000024912093C50652E0352E03C03E2E37FC52C161E00E94991E4801A12CB12C832D21
:204520008D7F09F0C7C060E072E18AE790E0A50194010E94DB2429833A834B835C8369011F
:204540007A0181E0C81AD108E108F1089FEFC916D104E104F10409F008F49AC060E472E4DD
:204560008FE090E0A50194010E94DB2469017A01E1E0CE1AD108E108F108F2E03F1219C03B
:204580008FEFC816D104E104F10409F008F48AC060E970ED83E090E0A50194010E94DB247C
:2045A00069017A0191E0C91AD108E108F10883E001C082E0EFEFCE16D104E104F10409F017
:2045C00008F467C068E478EE81E090E0A50194010E94DB2469017A01F1E0CF1AD108E108F8
:2045E000F1083320E1F082E038121BC09FEFC916D104E104F10409F008F4DBC064E274EFC2
:2046000080E090E0A50194010E94DB2469017A01E1E0CE1AD108E108F10885E003C083E01A
:2046200001C084E0FFEFCF16D104E104F10489F180F162E17AE780E090E0A50194010E9497
:20464000DB2469017A0181E0C81AD108E108F108311002C084E001C086E09FEFC916D104A8
:20466000E104F104B1F0A8F0C980DA80EB80FC809AE0F594E794D794C7949A95D1F7E1E0A1
:20468000CE1AD108E108F108332031F087E00BC081E0332011F007C085E095B5987F982BCC
:2046A00095BD38C082E09091B100987F982B9093B10030C060E072E18AE790E0A50194012F
:2046C0000E94DB2469017A01F1E0CF1AD108E108F108C114D10481E0E806F10488F068E42D
:2046E00078EE81E090E0A50194010E94DB2469017A0191E0C91AD108E108F10893E001C07F
:2047000091E0E1E03E1206C080918100887F892B80938100411451046104710471F0D801B2
:20472000AA0FBB1FA30192010E94FA2428EE33E040E050E00E94B92403C02FEF3FEFA9013E
:20474000F1E03F16A1F082E0381619F1311033C0C7BC2093D6063093D7064093D80650936E
:20476000D90680916E00826080936E0024C0D0928900C09288002093CF063093D0064093DB
:20478000D1065093D20680916F00826080936F0012C0C092B3002093C8063093C9064093E6
:2047A000CA065093CB068091700082608093700002C084E078CF0F900F900F900F90DF9136
:2047C000CF911F910F91FF90EF90DF90CF90BF90AF909F908F907F906F905F904F903F90C6
:2047E0000895813039F018F0823051F0089510926E00089580916F008D7F80936F00089552
:20480000809170008D7F8093700081E08093B0008091B100887F84608093B1001092B3009E
:204820000895CF93C82F809169018C1307C0E2ECF0E084919FEF9093690101C08FEF0E94F2
:20484000F12360E08C2FCF910C94D21E1F920F920FB60F9211242F933F934F935F936F9302
:204860007F938F939F93AF93BF93EF93FF938091C8069091C906A091CA06B091CB06892B94
:204880008A2B8B2B51F19091C506E091C606F091C7068081892780838091C8069091C90671
:2048A000A091CA06B091CB06181619061A061B06C4F48091C8069091C906A091CA06B0918E
:2048C000CB060197A109B1098093C8069093C906A093CA06B093CB0604C0809169010E9440
:2048E0001124FF91EF91BF91AF919F918F917F916F915F914F913F912F910F900FBE0F9018
:204900001F9018950E94552608950E94B61D0E9484240E94D400CAE8DFE10E94E900209798
:20492000E1F30E948A1FF9CF0C942E250C94C6250895991B79E004C0991F961708F0961B96
:20494000881F7A95C9F78095089597FB072E16F4009407D077FD09D00E94052507FC05D002
:204960003EF4909581959F4F0895709561957F4F0895A1E21A2EAA1BBB1BFD010DC0AA1FDF
:20498000BB1FEE1FFF1FA217B307E407F50720F0A21BB30BE40BF50B661F771F881F991FC4
:2049A0001A9469F760957095809590959B01AC01BD01CF010895052E97FB1EF400940E9434
:2049C000F22457FD07D00E94B92407FC03D04EF40C94F22450954095309521953F4F4F4FE8
:2049E0005F4F089590958095709561957F4F8F4F9F4F08950E941F25A59F900DB49F900D49
:204A0000A49F800D911D11240895AA1BBB1B51E107C0AA1FBB1FA617B70710F0A61BB70B11
:204A2000881F991F5A95A9F780959095BC01CD010895EE0FFF1F0590F491E02D0994A29F06
:204A4000B001B39FC001A39F700D811D1124911DB29F700D811D1124911D0895CF93DF9392
:204A60008230910510F482E090E0E091DC06F091DD0620E030E0A0E0B0E0309739F140818F
:204A8000518148175907B8F04817590771F482819381109729F013969C938E9312972CC054
:204AA0009093DD068093DC0627C02115310531F04217530718F0A901DB0101C0EF019A01FA
:204AC000BD01DF010280F381E02DD7CF21153105F9F0281B390B2430310580F48A819B818E
:204AE0006115710521F0FB019383828304C09093DD068093DC06FE01329644C0FE01E20F28
:204B0000F31F8193919322503109398328833AC02091DA063091DB06232B41F420910201D4
:204B2000309103013093DB062093DA0620910001309101012115310541F42DB73EB74091B9
:204B4000040150910501241B350BE091DA06F091DB06E217F307A0F42E1B3F0B281739079E
:204B600078F0AC014E5F5F4F2417350748F04E0F5F1F5093DB064093DA068193919302C0CA
:204B8000E0E0F0E0CF01DF91CF910895CF93DF93009709F487C0FC01329713821282C09159
:204BA000DC06D091DD06209781F420813181280F391F8091DA069091DB068217930779F52D
:204BC000F093DB06E093DA066DC0DE0120E030E0AE17BF0750F412964D915C9113979D0178
:204BE0004115510509F1DA01F3CFB383A28340815181840F951F8A179B0771F48D919C914A
:204C00001197840F951F02969183808312968D919C911397938382832115310529F4F09332
:204C2000DD06E093DC063EC0D9011396FC93EE9312974D915D91A40FB51FEA17FB0779F43F
:204C400080819181840F951F0296D90111969C938E938281938113969C938E931297E0E018
:204C6000F0E08A819B81009719F0FE01EC01F9CFCE01029628813981820F931F2091DA064B
:204C80003091DB062817390769F4309729F41092DD061092DC0602C013821282D093DB067A
:204CA000C093DA06DF91CF91089581E090E0F8940C947026F999FECF92BD81BDF89A992783
:204CC00080B50895262FF999FECF1FBA92BD81BD20BD0FB6F894FA9AF99A0FBE0196089592
:204CE000F894FFCF0000DE068000010000002C01000058020000B004000060090000C0127F
:204D000000008025000040380000004B000080700000127A00000096000000E1000000C276
:204D20000100040000000500010006000200030000127A0000093D0080841E0040420F00D8
:204D400020A1070090D0030048E8010001FF000000007B014E0123012B013E014D0100004F
:204D60000000FD051506BB090D07C60D220A1007BE0A1307590E0F0B9D0B1607CD0B6709B8
:204D8000AC0ECD0E610AD20B7109880FBA0F7409E60B77091710500CB50D4A072E07190783
:204DA00051075F076B079E079B08AB07C307DB07F3070B0823083D0857086E0C770CF00C48
:204DC000790D750878087B087E088108AE09B009AA09A00EA40ED706840885088608870828
:204DE000880889088A088B088C088D088E088F0890089108920893080C07BE0800000000D8
:204E000004061F06BB090D07C60D220A1007BE0A1307590E0F0B9D0B1607CD0B6709AC0E4B
:204E2000CD0E610AD20B7109880FBA0F7409E60B77091710500CB50D4A072E071907510744
:204E40005F076B079E079B08AB07C307DB07F3070B0823083D0857086E0C770CF00C790D79
:204E6000750878087B087E088108AE09B009AA09A00EA40ED706840885088608870888087D
:204E800089088A088B088C088D088E088F0890089108920893080C07BE0800030506090AA6
:204EA0000B000102030405060708090A0B0C0D0E0F101112130300E0C81000000102030464
:204EC0000541726475696E6F20556E6F00446562756767696E6720456E61626C6564000052
:204EE000000000D106940882240D078224822410078224130782248224822416078224822B
:204F00002482248224822482248224822482248224822482248224822482244A072E071960
:204F20000751075F076B079E079B08AB07C307DB07F3070B0823083D0857088224822482EA
:204F4000248224750878087B087E088108822482240B0782248224D7068408850886088743
:204F600008880889088A088B088C088D088E088F0890089108920893080C07BE0843726534
:204F800061746564204E657720536572766F204F6E204368616E6E656C2000536572766F15
:204FA0002000203A200000000000F6050B06BB090D07C60D220A1007BE0A1307590E0F0BFA
:204FC0009D0B1607CD0B6709AC0ECD0E610AD20B7109880FBA0F7409E60B77091710500C9C
:204FE000B50D4A072E07190751075F076B079E079B08AB07C307DB07F3070B0823083D08F6
:2050000057086E0C770CF00C790D750878087B087E088108AE09B009AA09A00EA40ED706C3
:205020008408850886088708880889088A088B088C088D088E088F08900891089208930838
:205040000C07BE085374617465202D20436C6F7365005374617465202D20457869740053B8
:2050600074617274696E67204C697374656E65722E2E2E0A0000000000661269126C126F5D
:2050800012E91026103C103F108E10436C6F736520436F6D6D616E640000000000661269E0
:2050A000126C126F127212751278127B1200000000DB1F69215D1F761F681FB91F00FFFFCB
:2050C000FFFFFFFFFFFFFFFFFFFFFFFFFFFFFFFFFFFFFFFFFFFFFFFFFFFFFFFFFFFFFFFFF0
:2050E000FFFFFFFFFFFFFFFFFFFFFFFFFFFFFFFFFFFFFFFFFFFFFFFFFFFFFFFFFFFFFFFFD0
:20510000FFFFFFFFFFFFFFFFFFFFFFFFFFFFFFFFFFFFFFFFFFFFFFFFFFFFFFFFFFFFFFFFAF
:20512000FFFFFFFFFFFFFFFFFFFFFFFFFFFFFFFFFFFFFFFFFFFFFFFFFFFFFFFFFFFFFFFF8F
:207E0000112484B714BE81FFF0D085E08093810082E08093C00088E18093C10086E08093FC
:207E2000C20080E18093C4008EE0C9D0259A86E020E33CEF91E0309385002093840096BBAD
:207E4000B09BFECF1D9AA8958150A9F7CC24DD2488248394B5E0AB2EA1E19A2EF3E0BF2E79
:207E6000A2D0813461F49FD0082FAFD0023811F0013811F484E001C083E08DD089C0823404
:207E800011F484E103C0853419F485E0A6D080C0853579F488D0E82EFF2485D0082F10E0A0
:207EA000102F00270E291F29000F111F8ED068016FC0863521F484E090D080E0DECF84364D
:207EC00009F040C070D06FD0082F6DD080E0C81680E7D80618F4F601B7BEE895C0E0D1E0ED
:207EE00062D089930C17E1F7F0E0CF16F0E7DF0618F0F601B7BEE89568D007B600FCFDCF1A
:207F0000A601A0E0B1E02C9130E011968C91119790E0982F8827822B932B1296FA010C016F
:207F200087BEE89511244E5F5F4FF1E0A038BF0751F7F601A7BEE89507B600FCFDCF97BE85
:207F4000E89526C08437B1F42ED02DD0F82E2BD03CD0F601EF2C8F010F5F1F4F84911BD0B8
:207F6000EA94F801C1F70894C11CD11CFA94CF0CD11C0EC0853739F428D08EE10CD085E9AE
:207F80000AD08FE07ACF813511F488E018D01DD080E101D065CF982F8091C00085FFFCCF0A
:207FA0009093C60008958091C00087FFFCCF8091C00084FD01C0A8958091C6000895E0E68F
:207FC000F0E098E1908380830895EDDF803219F088E0F5DFFFCF84E1DECF1F93182FE3DF47
:207FE0001150E9F7F2DF1F91089580E0E8DFEE27FF270994FFFFFFFFFFFFFFFFFFFF040425
:00000001FF
